:020000020000FC
:02000000C3C07B
:100048004EC0014400940000014500AA000001547C
:1000580000BE0200016600D20000016900DC000059
:100068004F6B0A0DFF004572726F720A0DFF5772CF
:100078006F6E6720636F6D6D616E640A0DFF43508C
:100088005520496E6974204F6B0A0DFF52657374D1
:100098006172742E2E2E44697361626C65640A0D58
:1000A800FF0050756C6C206F7574206172726179F5
:1000B8002E2E2E0A0DFF577269746520746F206109
:1000C800727261792E2E2E0A0DFF4C6564204F6ED8
:1000D8000A0DFF004C6564204F66660A0DFF1FB7C6
:1000E8000091C6000C93A3951FBF189527E620938F
:1000F800C40020E02093C50028E92093C10026E031
:100108002093C2000895422C2A3328F0273430F077
:10011800273638F00FC0203338F40CC0213430F4BF
:1001280009C0213628F406C020530895275308959E
:1001380027550895432C0895E0E0F2E08C2E9D2E7B
:10014800C0E5D2E050E12991322F432C40FC2295A2
:100158002F702A3018F4205D219302C0295C219366
:10016800431419F4422C232FF1CF20E221935A95FE
:1001780051F72AE021932DE02193C82DD92D089518
:100188002227E0E0F1E02193F930E9F7E030D9F7F0
:10019800EE27FF27EEE1FF27EA95F083E9F72FEF37
:1001A8002DBF28E02EBF21E0322E20E224B9A0E0A6
:1001B800B1E0CA2FDB2F9ADFE6E8F0E091D078941F
:1001C80025E22D9326E42D9320E42D9324E22D930C
:1001D8002AE22D93AC17F1F3531449F02881C39503
:1001E800253209F0F7CF532CE0E0F2E0F3CF288175
:1001F800253231F0C3952A3231F021935395EACF55
:1002080055275524E7CF8C2E9D2E50FD31C056958D
:10021800452F4A95E0E0F2E0C0E4D2E0219173DF97
:10022800431431F1322F329521916DDF431401F1DE
:10023800322B39935A9591F7C0E4D2E028812530C2
:10024800B8F4EAE4F0E0221519F036962A95E9F7B1
:1002580095918591D591C5913591341749F4EC2F35
:10026800FD2F3ED0E82FF92FC82DD92D522C0994F7
:10027800522C522DC82DD92DE6E7F0E031D0AACF67
:10028800A9CF5ADFE0E0F2E052E321913091C000BB
:1002980035FFFCCF2093C6005A95B9F719D09ACFED
:1002A8008C2E9D2EC1E4D2E02991203138F4205BB8
:1002B800E22FF2E0299121930BD001C00DD0C82D77
:1002C800D92D88CF2D9A04D085CF2D9801D082CFF3
:1002D800E8E6F0E005D00895EEE6F0E001D00895F4
:1002E80045914F3F39F03091C00035FFFCCF409326
:0602F800C600F6CF0895D8
:00000001FF
